:020000041000EA
:1000000000200008EB0000100D0000004D01001062
:1000100000000000000000000000000000000000E0
:100020000000000000000000000000004901001076
:10003000000000000000000049010010490100100C
:100040004901001049010010490100104901001048
:100050004901001049010010490100104901001038
:100060004901001049010010490100104901001028
:100070004901001049010010490100104901001018
:1000800010B5064C2378002B07D1054B002B02D06E
:10009000044800E000BF0123237010BDB003000836
:1000A0000000000014150010044B10B5002B03D005
:1000B0000349044800E000BF10BDC0460000000036
:1000C000B4030008141500100230800803D001307A
:1000D0000238FCD1C046C0467047EFF3108072B6BC
:1000E000704780F3108870477047FFF7FDFF72B6C6
:1000F0000F4C104DAC4209DA21686268A368043BDA
:1001000002DBC858D050FAE70C34F3E70A490B4A2F
:100110000020521A02DD043A8850FCDC08480949E4
:100120000860BFF34F8F00F0EDFE00F09BFEFEE78E
:100130002015001038150010B0030008C80500088D
:100140000000000808ED00E0FEE7FEE700B504202F
:100150007146084202D0EFF3098002E0EFF3088015
:10016000043000F091FCFEE7014B18607047C04678
:10017000CC030008044B1B681A00BA3212881B6AB1
:100180005043C0187047C046CC030008A02300B5F8
:100190001B06984226D015D8802825D00AD81028CA
:1001A00024D0402824D000280BD0154809E0A420F2
:1001B000C00306E08022134B520090421CD09842AC
:1001C000F3D100BD104B984218D0104BC018042832
:1001D000EBD800F035FFECEA0F0305000C48F0E720
:1001E0000C48EEE70020ECE70B48EAE70B48E8E7AD
:1001F0000B48E6E70B48E4E71800E2E7A020D7E762
:10020000FF00520006005200090000A0FFFFFF0F90
:10021000020052000300520005005200010050008D
:10022000020050000100520010B50020FFF7A2FFAD
:100230000A4B1C682300BC331B68C0180368002BE2
:100240000ADB074B1868FFF7A1FF012263689A6079
:100250009A68002AFCD110BD0248FCE7CC030008D4
:10026000D003000802005000064B1B68BC331B681B
:10027000C3181B68002B03DA89B241600020704765
:100280000148FCE7CC03000801008A000368002B4A
:1002900004DA89B2C2608160002070470048FCE740
:1002A00001008A00064B1B68BC331B68C3181B681F
:1002B000002B03DAC36800200B6070470148FCE79D
:1002C000CC03000801008A00024B1A68002A00D102
:1002D00018607047E4030008F0B52C244443154827
:1002E0001F0000681E0A0019FF2426402740124CF8
:1002F0001B0C256807602C6A46608360BA352D8820
:100300006F433F190761370080377F01E7190B4DB5
:1003100076014761A4191F043B436419236000233D
:100320008361059BC2610162002B01D01B88838120
:10033000F0BDC046E4030008CC030008081000002C
:10034000F0B5836885B002AD2B800368066A173369
:100350006B804368476A0095826AC16A0400039310
:100360000369C068FFF7B8FF00213B000A003000B6
:100370000091FFF7B1FF2800216B00F039FB00224C
:10038000AB5E002B06DB1F2213401E3A9A4013007F
:10039000014A136005B0F0BD00E100E0F7B52C267E
:1003A000134C70434E43246801932518A4192E69F9
:1003B000002E19D0A069002818D13168002915DA5B
:1003C00001216F680D0063689D40AC4613689DB2C3
:1003D00063461B041D431560F260A161B940019B97
:1003E00089B26362B160FEBD0248FCE70248FAE7E9
:1003F000E403000804028A0007028A0073B500269D
:1004000042690400D56801962B0CB34221D01B042D
:1004100013601368194B00691B68BC331B68C31851
:100420001B68B34215DA01A9FFF73CFFB0420CD1BB
:100430000198E26903681E0CDBB29A4205D9226A70
:100440009B009B58002B00D0984731002069FFF794
:100450000BFFADB2002D09D063691D6000251B683C
:10046000636AAB4205D098476562A56163691B6802
:1004700073BDA36A002BF8D09847F6E7CC030008B9
:100480002C2310B54343034A1068C018FFF7B6FF8A
:1004900010BDC046E40300081A4B70B51A680C0082
:1004A000130033331B7883422AD9002928D00D68E2
:1004B0001F212B000B400D4222D11100BA310988B7
:1004C000126A48431900104D8018286022685209AA
:1004D000934210D30021FFF7C7FE002122002868B5
:1004E000FFF7D4FE011E04D12868FFF7BDFE0028E7
:1004F00000D0064870BD66689A0091510133E5E767
:100500000348F7E7CC030008E803000801018A006C
:1005100003018A0010B504000800002A0CD100294C
:1005200013D10B4B1A681300BA331B88126A63434A
:100530009B18084A136010BD002906D006490860C0
:1005400020004A60FFF7A8FFF5E70448F3E7C0463C
:10055000CC030008E80300087803000803018A00C0
:10056000F7B5184F04003B680191DE683368834299
:1005700026D90025A94202D1FFF7AFFD0500386852
:100580000368002B1ADA1F220123224093406409DA
:100590007268A4001419226813420DD09A43226095
:1005A00000240021FFF760FE019B002B02D12800F0
:1005B000FFF797FD2000FEBD034CF2E7034CF3E785
:1005C000034CF7E7E80300080201880003018800F4
:1005D00004018A000A4B1B68DB681A6882420DD945
:1005E00059681F23420918401E3B8340920050580F
:1005F0001840431E9841034BC01870470248FCE75F
:10060000E80300080001880004018A00054B1B680C
:100610001A0088321B6812689B181868000AC0B25A
:100620007047C046CC030008044B1B681A00883290
:100630001B6812689B181868000E7047CC030008EE
:10064000034BE0308000C0588006800F7047C046E2
:1006500000002640024B18694007C00F7047C04693
:1006600000002740A6220549D2008B580220DB4318
:100670009B0702D00123885818407047000026408D
:1006800010B5FFF7EFFF0023022801D1014B1B68D3
:10069000180010BDF0030008094A83009B18D022FF
:1006A0009200985807221040042807D1C0229200D7
:1006B00098581F2303408020400018437047C046CD
:1006C0000000264010B5FFF7E7FF88235B00984243
:1006D0001AD009D8012811D0022812D0434258411B
:1006E000114B4042184010BD1223FF33984213D0E3
:1006F0001423FF33984214D00020F4E70B4B186802
:10070000F1E7FFF7BDFFEEE7094A0A4BD358002B8C
:10071000F2DA80200002E6E7FFF79CFF0028EBD02A
:10072000F7E7034A044BF1E700127A00EC030008F4
:10073000000026400C0500003C050000B023154ACF
:10074000DB00D35810B59903DB01DB0F890BC371B4
:10075000114B0160D3580F24D904DB01DB0D038159
:10076000B123DB00D358C90C81801900214081726C
:1007700019092140C172D9029B009B0F8373074B5B
:10078000C90CD35881815A05DB01520FDB0D8271F0
:10079000038210BD00002640840500008C05000087
:1007A0008030034BFF308000C058C00F7047C046F8
:1007B0000000264010B5104B421E1B683F331B78CB
:1007C000934216D97F221F2480300C4BFF308000CB
:1007D000C3581A400A701A0C2240180A8A701A016B
:1007E0002040E240487000209B009B0FCA700B71B4
:1007F00010BD0348FCE7C046CC03000800002640BB
:1008000001004A00F0B589B003AC2000FFF796FF65
:10081000B0231A4ADB00D25800239A4203DAA37BA2
:10082000023B5A1E9341E57900266A1E9541013527
:10083000B34220D0A488B4421DD03000039FFFF7FC
:1008400041FF2A00330031000190200000F0AEFC8F
:100850000C00050033003A003100019800F0A6FCBE
:10086000E6076A0832436308801859412A002300CA
:1008700000F07CFC0600300009B0F0BD000026400E
:10088000F7B5234B06001B683F331B78002B08D0BD
:1008900000283BD0834204D36946FFF78BFF041E38
:1008A00001D0002632E03000FFF77AFF2300002855
:1008B00005D06B461C79023C23005A1E93416A46C0
:1008C0005478002BEDD0002CEBD09578002DE8D09B
:1008D00030001778FFF7F6FE002306002A002000FC
:1008E000190000F063FC00230C0005003A00300002
:1008F000190000F05BFCE6076A08324363088018C1
:1009000059412A00230000F031FC06003000FEBDF2
:10091000CC03000810B5041E04D1FFF773FF0028B4
:1009200006D008E0064B1B683F331B78834203D296
:100930002000FFF7C7FE10BDFFF7A2FFEFE7C0469C
:10094000CC03000870B50500FFF77AFEE035074BD1
:10095000AD000400E8580F231840FFF7DBFF012328
:10096000A3405B081818E04070BDC0460000264058
:10097000144B30B51C6823002C331A7807231F2A28
:1009800015D8820815009D432B1E0FD10333184044
:10099000984081402368920020339B180A00FF2171
:1009A00081401C68624011406140196030BD1840B0
:1009B00080231B06184380239B012268C9188900E5
:1009C0008850F3E7CC030008064B10B59A68064C34
:1009D00010308300A24202D19858995010BD034AAA
:1009E000D058FBE700ED00E0000000080000001018
:1009F000F8B506000D0000283AD00023C05E00289C
:100A000028DB7188FFF7B4FF0024FF2203279446F8
:100A10000023F05E71680740FF006646BA40890116
:100A20003140D243B94083B2002815DB114E830810
:100A30009B009B19C026B6009F593A40114399511B
:100A40000D4B9A680D4B9A4202D12900FFF7BCFF6B
:100A50002000F8BD0A4CD8E70F263340083B064E6D
:100A60009B089B009B19DE6932401143D961E7E77F
:100A7000034CEDE700E100E000ED00E000000008BD
:100A800001005600FEE7000002680A4B10B51A602C
:100A900042685A6082689A60C268DA6002691A61C4
:100AA00042695A6182699A61C269DA61FFF7EAFFB5
:100AB00010BDC04690030008B0235B055A78212082
:100AC000002A01D05878C0B27047B0235B059A89DC
:100AD000002A02D0988980B2704780204000FBE74E
:100AE0007FB5274B86000D00F458042901D0012959
:100AF00027D100200FE0A3682B420BD1E368290027
:100B00001A685B6802920193039302A823689847CE
:100B10001C4B1C606469002C0BD01B4B9842EAD123
:100B2000012DE8D1174B18481A68184B9A5104B098
:100B300070BD012DFBD1144B9842F3D0134B9C5147
:100B4000F5E7022915D026006469002CFBD10020AE
:100B5000002EECD0B3682B4209D1F36829001A6843
:100B60005B6802920193039302A833689847366941
:100B7000EEE7044B1B68181ED9D01E69E7E7C04694
:100B80003404000830040008FF0042001C04000880
:100B90001A4B1B68190088311A68096851180968CE
:100BA000016219008C3109685218126842621A00F9
:100BB00046321278002A1FD09A68E0321268D206B4
:100BC0001AD5F222DB68D2019A580260F022D201D3
:100BD0009A5842600A4A9A5882600A4A9A58C260F1
:100BE000094A9A580261094A9A584261084A9A5831
:100BF0008261084A9B58C3617047C046CC03000815
:100C000004780000087800000C78000010780000DC
:100C100014780000187800001A4B1B681A008832FC
:100C2000196812688A18016A11601A008C321968F2
:100C300012688A18416A11601A0046321278002A36
:100C40001ED09A68E0321268D20619D5F0224168A7
:100C5000DB68D201995081680B4A9950C1680B4AF0
:100C6000995001690A4A995041690A4A9950816923
:100C7000094A9950C169094A99500168E832995066
:100C80007047C046CC0300080478000008780000D4
:100C90000C7800001078000014780000187800002C
:100CA000F7B50700FFF708FF5D4D06006B68002BE6
:100CB00000D07DE0FFF711FA6B680090002B00D0A8
:100CC00089E0584C22681300BA33198807234B4334
:100CD000126A9B181A68002AFCDADB68DA0021D550
:100CE0001B0F1B0750480193FFF752FF20684F4925
:100CF000030088331C6803681C1923680B40212EED
:100D000000D06DE0902212011343236003008C3366
:100D100000681B68C318186801400A431A60424BF8
:100D2000019A134380223F4E9205316813430A0013
:100D3000BA321088072200244243096A5218D3604D
:100D400054605368FFF7C1FE80235B0098424AD18C
:100D5000380000F05DFB32681300BA3319880723AE
:100D60004B43126A9B181A68002AFCDADF68FB0002
:100D700003D538010009FFF74FFF2D4B32681F40A4
:100D80001300BA33198807234B43126A00989B1843
:100D90000022DF605A60FFF7A4F9002C0FD16B68C6
:100DA000002B03D008210120FFF79AFE2000FEBD92
:100DB00001210800FFF794FE041E00D17AE76B685A
:100DC000002B03D002210120FFF78AFE194B9C4221
:100DD000ECD0194CEAE704210120FFF781FE70E70F
:100DE0008022520090E733681A00BC32196A1268F8
:100DF00052181168002910DBBA331B889A1813683F
:100E0000002B0ADB04230D4A11690B431361012FE8
:100E100001D030BF9FE720BF9DE7064C9BE7C0464F
:100E200034040008CC030008F4030008FF00FFFFAF
:100E3000FFFFFFDF05004200FF00420000ED00E081
:100E4000C0228020064952008B58C0059B009B0899
:100E500003438B50802388581B0603438B507047F5
:100E60000000264010B562B6034800F0C3F8002029
:100E7000FFF716FFFBE7C0460020001010B500206A
:100E8000FFF7FEFA10BD704710B50020FFF75AFDBE
:100E9000041E28D0144B1860FFF7C6FB411C20002D
:100EA00000F0D8F8114B04001860FFF7AFFB411CAD
:100EB000200000F0CFF804000D4B013C18600D49F4
:100EC000200000F0C7F8FA210B4B013018708900A0
:100ED000200000F0BFF8094B013018600020FFF738
:100EE00031FD074B186010BD880000088C00000819
:100EF0008000000840420F009400000890000008A5
:100F00008400000810B52048FFF72EF9B022E02138
:100F100030201E4CD200A35889005B005B08A35010
:100F200063588343635080235B04A350184B194AD2
:100F3000E250A02204339201E250FF22164BE2500D
:100F4000FFF77EFFC02201215200A3588B43A3501C
:100F5000FFF799FFFFF798FF104B03201A68130063
:100F6000BA33198807234B43126A80219B18002249
:100F7000DA605A600A4AFFF7CDFA0A48FFF7A4F987
:100F80000948FFF7DDF910BD2014001000002640CD
:100F900084050000010002008C050000CC0300085D
:100FA0008003000848040008E01400109023034A5E
:100FB0005B01D058032318407047C0460000204012
:100FC00010B59024FFF789F8074B64011A590749B7
:100FD0001140074A0A431A51102259681142FCD0A5
:100FE000FFF77FF810BDC04600002040FCFF000066
:100FF0000100FA05F8B590260E4C76010700FFF7C0
:101000006CF8A3590500DB439B0701D1FFF7D8FF1C
:1010100080239B00E750A359074A1A40074B13430C
:10102000A351102362681A42FCD02800FFF759F838
:10103000F8BDC04600002040FCFF00000300FA0598
:1010400002B4714649084900095649008E4402BC61
:101050007047C046002243088B4274D303098B4279
:101060005FD3030A8B4244D3030B8B4228D3030C78
:101070008B420DD3FF22090212BA030C8B4202D31A
:101080001212090265D0030B8B4219D300E0090A42
:10109000C30B8B4201D3CB03C01A5241830B8B424B
:1010A00001D38B03C01A5241430B8B4201D34B0334
:1010B000C01A5241030B8B4201D30B03C01A524199
:1010C000C30A8B4201D3CB02C01A5241830A8B421E
:1010D00001D38B02C01A5241430A8B4201D34B0207
:1010E000C01A5241030A8B4201D30B02C01A52416B
:1010F000CDD2C3098B4201D3CB01C01A524183091F
:101100008B4201D38B01C01A524143098B4201D358
:101110004B01C01A524103098B4201D30B01C01A83
:101120005241C3088B4201D3CB00C01A52418308FD
:101130008B4201D38B00C01A524143088B4201D32A
:101140004B00C01A5241411A00D20146524110468A
:101150007047FFE701B5002000F006F802BDC04669
:101160000029F7D076E770477047C046002B11D1B1
:10117000002A0FD1002900D1002802D00021C94344
:10118000080007B4024802A14018029003BDC046FF
:10119000D9FFFFFF03B4684601B5029800F034F8A8
:1011A000019B9E4602B00CBC7047C046F0B5CE46CF
:1011B000474680B5070099463B0C9C4613041B0C20
:1011C0001D000E0061460004140C000C45434B4307
:1011D00060436143C0182C0C20188C46834203D90D
:1011E00080235B029846C444494679437243030C0A
:1011F00063442D042D0CC918000440198918C0BC83
:10120000B946B046F0BDC046F0B557464E464546D5
:10121000DE46E0B504000D009246994683B08B424D
:1012200030D82DD04946504600F0D8F829000600A5
:10123000200000F0D3F8331A9846203B9B4633D465
:101240005A465346934042461F00534693401E0061
:10125000AF423AD8AF4200D178E05B46A41BBD4113
:10126000002B00DA75E00022002300920193012395
:101270005A4693400193012342469340009328E04D
:101280008242CFD900220023009201930C9B002BB5
:1012900001D01C605D600098019903B0F0BCBB46B2
:1012A000B246A946A046F0BD424620239B1A5246AC
:1012B000DA40414613004A468A40170042461F431F
:1012C000534693401E00AF42C4D90022002300922F
:1012D00001934346002BD9D0FB0772081A434646B8
:1012E0007B080EE0AB4201D1A2420CD8A41A9D416A
:1012F000012024196D410021013E24184D41002E8A
:1013000006D0AB42EED9013E24196D41002EF8D132
:10131000009801995B4600196941002B24DB2B00E2
:101320005A464446D3402A00E2401C005B46150062
:10133000002B2ADB26009E40330026004746BE4095
:101340003200801A9941009001919FE7A342BCD8D6
:1013500083E74246202300219B1A0022009101923C
:101360000122DA40019286E7424620239B1A2A0096
:1013700046469A402300F340444613432A00E24085
:101380001C005B461500002BD4DA42462F002023B8
:10139000260097409B1ADE403B003343CDE7C04612
:1013A0001C2101231B04984201D3000C10391B0A95
:1013B000984201D3000A08391B09984201D3000959
:1013C000043902A2105C40187047C04604030202B0
:1013D00001010101000000000000000010B500291B
:1013E00003D1FFF7DDFF203002E00800FFF7D8FF50
:1013F00010BDC046F8B5C046F8BC08BC9E46704754
:10140000F8B5C046F8BC08BC9E4670470000000016
:1014100001B40248844601BC604700BF6102000875
:1014200000002040000024400000004000000000B8
:1014300000002340000030400000314000009F4089
:10144000000022400000104000009D40202020208D
:1014500020101010101D1D8017007500FF030602DC
:1014600006003604102000007FC0000000040000C9
:10147000000000000019324B647D00000000008075
:101480004000080B100000000000FF012002001FB8
:1014900000800004FF081018001000140018001C41
:1014A0004044484C500000000810000008000000B4
:1014B00004000000041000000012000004210000DD
:1014C000002100000016000040114002C413001368
:1014D0008013A01340138813A81320001C000000E1
:1014E00003000000010000000100000000000000F7
:1014F000050360000400000001000000000000007F
:10150000010000000604600008000000A8050008B3
:101510007D0E001000000000F0FCFF7F01000000C5
:1015200000000010000000088000000040150010BE
:1015300080000008F8020000B00300081802000054
:1015400000093D0000093D0000127A0000093D003D
:10155000A00F000004000000A9000010810000108E
:1015600080B230B5C400002820D0114B0722186883
:101570000300BA331B885343026A9A181168002982
:10158000FCDA3E210B4A062511600B4A0B4911601B
:10159000A3210B4AC90055500A495450006A5458B7
:1015A0001B18002058605358002BFCDA30BDC04691
:1015B000CC03000804012640080126401E1F00003D
:1015C000000026401C05000010B54378FF2B11D108
:1015D00000F0FAF80400032000F00EF90121C368BE
:1015E0005B681A680A431A601A680A42FCD1200034
:1015F00000F01AF910BDF7B507000020019100F0C6
:10160000FBF83E4C050023681A005033BC321668C4
:101610001B788619002B59D000F0F6F800900328AB
:101620001AD000F0D1F8364A364B0400D358002BBC
:101630003CDA01212800344A00F0D6F8002835D1E0
:101640000198FFF78DFF002F3ED03368002BFCDBA5
:1016500000F0B2F805002AE0062000F0CDF823687B
:10166000BC331B68C0180368002B02DA274D280022
:10167000FEBD002000F0B0F8254B9842F6D00023C4
:10168000244A19000120126800F0C6F8041EEDD1AA
:10169000002000F0A1F81E4A1F4B904203D09C424C
:1016A000E4D00134F4E79C42BBD1DFE7174D009B47
:1016B000032B05D10121002000F076F80028F9D194
:1016C000200000F0B1F8D2E7144DF0E700F07CF80C
:1016D000012104000C4A280000F086F8002808D1F7
:1016E000002F08D03368002BFCDB00F065F8050004
:1016F000E6E7064DE4E7094DE2E7C046CC03000803
:10170000000026401C050000D00300080500520020
:1017100001018800E0030008F049020001005000C8
:10172000184BF7B51B6818495A6804230C69234302
:101730000B61012824D030BF1300FC331B69002B40
:101740001DD1A324114B12481249E40007681E5909
:101750000D680195104D056006251D513E240C6055
:101760000E4C3E351D511D59002DFCDA0C4CFC323F
:101770001461A322D20007609E50019B0B60F7BD4D
:1017800020BFD9E7CC03000800ED00E000002640B0
:1017900008012640040126401E1F00001C05000011
:1017A000AAAAAAAA0000000001B40248844601BC0B
:1017B000604700BF6105001001B40248844601BCC7
:1017C000604700BF2902001001B40248844601BCF2
:1017D000604700BFDB00001001B40248844601BC32
:1017E000604700BFD505001001B40248844601BC23
:1017F000604700BF8D02001001B40248844601BC5E
:10180000604700BF7501001001B40248844601BC66
:10181000604700BFAD0F001001B40248844601BC10
:10182000604700BF9D03001001B40248844601BC1C
:10183000604700BFE300001000000000000000004F
:101840000000000000000000000000000000000098
:1020000000F80F08712300100D000000E5230010F8
:10201000E5230010E5230010E52300100000000078
:10202000000000000000000000000000F1BE0010F1
:10203000E12300100000000091BF001099BE0010C5
:10204000E1230010E1230010E1230010E123001040
:10205000E1230010E1230010E1230010E123001030
:10206000E1230010E1230010E1230010E123001020
:10207000E1230010E1230010E1230010E123001010
:1022E0000348044B834202D0034B03B118477047A5
:1022F000D02C0008D02C0008000000000548064B38
:102300001B1AD90F01EBA301491002D0034B03B1F3
:1023100018477047D02C0008D02C0008000000009F
:1023200010B5064C237843B9FFF7DAFF044B13B11D
:102330000448AFF300800123237010BDB82D0008BE
:1023400000000000940E0F1008B5054B1BB10549A5
:102350000548AFF30080BDE80840FFF7CFBF00BFDE
:1023600000000000BC2D0008940E0F10704770474D
:10237000FFF7FCFF72B6144C144DAC4209DA216829
:102380006268A368043BA2BFC858D050FAE70C3477
:10239000F3E70F490F4A00209142BCBF41F8040BFC
:1023A000FAE70D480D490860BFF34F8F00F084F83D
:1023B00000F068F808F047FF68F072FA01F0ECFDF1
:1023C00068F092FAFEE70000A00E0F10B80E0F1092
:1023D000B82D0008EC1701080020000808ED00E007
:1023E000FEE7FEE700B504207146084202D0EFF395
:1023F000098002E0EFF30880043051F041FAFEE773
:1024000008B5012049F0E2FC08BD704710B5002076
:1024100051F0E2F800B910BD0446124B186050F0BC
:1024200039F80130B4FBF0F00F4B186050F04AF867
:102430000130B4FBF0F40D4B1C60013C0C4BA3FBD2
:1024400004239B0C01330B4A13700B4BA3FB043486
:10245000A4090134094B1C60002051F0BDF8084B61
:102460001860D8E7E8220008EC220008E022000803
:1024700083DE1B43F4220008D34D6210F0220008D3
:10248000E422000808B5094847F0F2FDFFF7BDFF58
:10249000FFF7BCFF00221146032049F0F3FC04487B
:1024A00049F044FB034849F0A3FB08BDE4D90710F9
:1024B000D42D000870D60610EFF3108172B6074ACB
:1024C000D2F8883043F47003C2F88830BFF34F8FDE
:1024D000BFF36F8F81F31088704700BF00ED00E0FD
:1024E00008B500F0DBF800F00FF800F0CDF800F0D0
:1024F00047F800F04DF808BD08B500F0CDF900F040
:102500002DF800F06FF808BD08B50F2101204FF03D
:102510004DFE00220F2101204FF0BAFC0F210120B7
:102520004FF002FE002108464FF040FE0022114607
:1025300010464FF0ADFC002108464FF0F5FD072195
:1025400000204FF033FE0022072110464FF0A0FC80
:10255000072100204FF0E8FD08BD000008B5054840
:1025600041F046FD044841F043FD044841F040FD80
:1025700008BD00BF30D9061028D906102CD9061086
:1025800008B5002211462F204FF092FD08BD000033
:1025900010B50E4C0E4A0021204649F0D1F90D4AE3
:1025A0000121204649F0CCF904F540740A4A04217F
:1025B000204649F0C5F9094A0621204649F0C0F9EC
:1025C000074A0721204649F0BBF910BD0000314001
:1025D00008DA061040DA0610D0D9061098D906108D
:1025E00060D9061008B5184841F002FD174841F0BF
:1025F000FFFC174841F0FCFC164841F0F9FC164876
:1026000041F0F6FC154841F0F3FC154841F0F0FCB0
:10261000144841F0EDFC144841F0EAFC134841F045
:10262000E7FC134841F0E4FC124841F0E1FC124899
:1026300041F0DEFC114841F0DBFC114841F0D8FCD0
:10264000104841F0D5FC08BD3CDA061074DA0610DB
:1026500048D9061004DA0610CCD9061094D9061011
:1026600034D9061038D906103CD9061040D90610C6
:1026700044D906104CD9061050D9061054D906106A
:1026800058D906105CD90610024B33229A601A61A1
:10269000704700BF00203040FEE7000030B583B037
:1026A0000722002132204FF003FD9621002051F037
:1026B00039F951F0C9F8C0B96F4BD3F8004F04F0A5
:1026C0003F0451F0B1F830B1012051F0A3F86B4B49
:1026D0009B6C002B26DB684BC3F8004F4FF0E8FFE4
:1026E0004FF0D4FF01204FF0F7FF012051F06CFEB6
:1026F00051F012FE51F0ECFE51F0D6FE50F01AF9F6
:10270000002108464FF062FF00204FF0CDFE01206F
:102710004FF0B2FE00204FF0C5FD594B1B6893F8F7
:102720003F4006E00620FFF7B7FF204650F0EAFBE7
:10273000013C002CF9D10021012050F047F8002085
:102740004FF032FF00287BD00021084650F03EF8C1
:10275000002108464FF008FF4A4D0024009423460C
:1027600022462146284648F0D5FF009423462246BB
:102770000121284648F0CEFF43484FF061FF002872
:102780006AD101204FF060FE00204FF08DFE002046
:102790004FF072FE00204FF085FD0021012050F027
:1027A00015F80021084650F011F80021022050F0E1
:1027B0000DF80021032050F009F80021042050F00A
:1027C00005F80021052050F001F8304850F0CCF811
:1027D000002844D12E4850F023FB002842D100218C
:1027E00008464FF0C1FE002108464FF0EFFE294990
:1027F000012050F0ADFBC0BB42F21071012050F03F
:10280000CFFCA8BB4FF016FE00204FF0CDFD0020FE
:102810004FF0EAFD4FF0FCFD0021084651F0B8FEF4
:1028200001204FF0A9FD4FF031FF01204FF054FF80
:102830006421002051F076F8FFF7E8FD03B030BDC9
:102840004FF0F2FF40F2111398427FF47DAF012167
:1028500000204FF089FE77E70520FFF71DFF0420D9
:10286000FFF71AFF0420FFF717FF0320FFF714FFFD
:102870000320FFF711FF00BF00F0274000002740B2
:10288000F80B01080000314040420F0078DA0610D2
:10289000400D0300A4DA061008B5094841F0A8FB72
:1028A000084841F0A5FB084841F0A2FB074841F069
:1028B0009FFB074841F09CFB064841F099FB08BD8F
:1028C0008CDA061090DA061094DA061098DA061000
:1028D0009CDA0610A0DA061008B5044851F0A4F9F5
:1028E00008B1002008BD0248FCE700BF2C24000806
:1028F0000000020610B541F079FB044638B154B12E
:10290000FFF7EEFDFFF7F8FD5CB1204610BD46F085
:1029100001FA0446F3E740F6E441002046F0B8FA35
:10292000EEE7FFF7D9FF0446EFE70000014B012275
:102930001A7070474C24000838B50F4C0F492046D8
:1029400040F008F800220E49204640F06EF80122BF
:102950001146204640F035F80A4D0B4928463FF015
:10296000F9FF2146284640F0A5F8012211462846E5
:1029700040F027F838BD00BF383100084CD40710AC
:10298000000077016C3000081CD4071010B582B02D
:1029900000220421142009F00DFF104B1860FFF7EE
:1029A000CBFF0F4B00930F4B542255210E4842F0A2
:1029B0003BFB00B101BE0C4C00220C49204642F00A
:1029C000B3FE012303221021204642F0B9FE204627
:1029D00042F04EFA00B101BE02B010BD4431000811
:1029E000ACDA06106C300008743000082D29001095
:1029F00000B5ADF6040D4FF400620021684667F0A3
:102A00000FF8FFF7C3FF2EE03DF91230002BB8BFDF
:102A10005B421B49086810FA83F30B600132B2F580
:102A2000806FF1D3164B1A68164B1B68B3EB123F3D
:102A300023D228214FF47F4052F0ACF9104A13689A
:102A40001B0B1360104B186820B100230A220C499D
:102A500009F00EFF4FF4806269460C4842F0DAFD3F
:102A600001200AF041FC0A4B1B78002BF8D0002211
:102A7000074B1A70024B1A60D1E752F025F9DDE7D7
:102A80004031000848240008443100087430000830
:102A90004C24000800000000F8B505460E4601F081
:102AA00046F804463FA1D1E9000101F001F80246D1
:102AB0003349204600F0ECFF286863F01DFE00F06B
:102AC000F7FF02462F49204600F0E2FF2E4801F0B2
:102AD00019F802462D49204600F0DAFF287963F004
:102AE0000BFE00F0E5FF02462949204600F0D0FF2A
:102AF000687963F001FE00F0DBFF024625492046BD
:102B000000F0C6FFE88863F0F7FD00F0D1FF024651
:102B10002149204600F0BCFF688963F0EDFD00F01C
:102B2000C7FF02461D49204600F0B2FF287A63F035
:102B3000E3FD00F0BDFF0246194F3946204600F084
:102B4000A7FF287A63F0D8FD00F0B2FF02463946AD
:102B5000204600F09DFF204600F066FF67F03EFF34
:102B60000546204600F060FF0146ADB22A463046D9
:102B700066F003FF00237355204600F02BFFF8BDDD
:102B8000B8DA0610BCDA0610C0DA0610C8DA061089
:102B9000D4DA0610E4DA0610F4DA061004DB0610C4
:102BA00014DB061000E00F0541067842000000002B
:102BB000F8B504460F4600F0BAFF06467EA1D1E9FB
:102BC000000100F075FF02466749304600F060FFE3
:102BD000206863F091FD00F06BFF024663493046C8
:102BE00000F056FF624800F08DFF02466149304612
:102BF00000F04EFF00F09BFF054602465E4930465E
:102C000000F046FF606863F099FD00F051FF024656
:102C10005A49284600F03CFFA06863F08FFD00F0A1
:102C200047FF02465649284600F032FF00F07FFF7A
:102C3000054602465349304600F02AFFB4F90C001D
:102C400063F06AFD00F034FF02464F49284600F069
:102C50001FFFB4F90E0063F05FFD00F029FF02468C
:102C60004A49284600F014FFB4F9100063F054FDFF
:102C700000F01EFF02464649284600F009FFB4F95D
:102C8000180063F049FD00F013FF02464149284651
:102C900000F0FEFEB4F91A0063F03EFD00F008FFFC
:102CA00002463D49284600F0F3FEB4F91C0063F0EB
:102CB00033FD00F0FDFE02463849284600F0E8FEEC
:102CC000B4F9240063F028FD00F0F2FE0246344916
:102CD000284600F0DDFEB4F9260063F01DFD00F08B
:102CE000E7FE02462F49284600F0D2FEB4F928003C
:102CF00063F012FD00F0DCFE02462B49284600F08E
:102D0000C7FE00F014FF054602462849304600F091
:102D1000BFFEE06A63F0F0FC00F0CAFE0246244900
:102D2000284600F0B5FE206B63F0E6FC00F0C0FE24
:102D300002462049284600F0ABFE304600F074FE03
:102D400067F04CFE0446304600F06EFE0146A4B229
:102D50002246384666F011FE00233B55304600F00F
:102D600039FEF8BDAFF30080B8DA0610BCDA061001
:102D7000C0DA0610C8DA061024DB06102CDB0610B9
:102D800038DB061044DB061058DB061060DB06104B
:102D900068DB061070DB061078DB061080DB06109F
:102DA00088DB061090DB061098DB0610B4DB0610FB
:102DB000A0DB0610ACDB061000E00F0541067842F0
:102DC00008B5012302220021042040F0A5FE00B135
:102DD00001BE0123022200210C2040F09DFE00B123
:102DE00001BE0C490C4B0B60042040F001FF012395
:102DF00007220221042040F021FF0849084B0B6004
:102E00000C2040F0F5FE0123072202210C2040F0A7
:102E100015FF08BD48310008652E00105831000824
:102E2000252E001000B583B00023019301228DF8F8
:102E3000032001AA0DF103010948006809F08CFA8A
:102E4000019B4BB14FF0E0234FF08052C3F8042DAB
:102E5000BFF34F8FBFF36F8F03B05DF804FB00BF6C
:102E60006C31000800B583B00023019301238DF875
:102E700003300C4B186888B1002301AA0DF103013F
:102E800009F06AFA019B4BB14FF0E0234FF08052FA
:102E9000C3F8042DBFF34F8FBFF36F8F03B05DF8FE
:102EA00004FB00BF6831000808B500220121084674
:102EB00009F080FC074B186000220121084609F048
:102EC00079FC054B1860FFF77BFF4FF47A700AF02E
:102ED0000BFAFAE7683100086C31000801604860BD
:102EE0007047000010B5064B1B6828209847044621
:102EF00018B12822002166F093FD204610BD00BFC6
:102F00005424000848B10346006840B110B59C68DD
:102F1000204467F063FD204410BD0020704700206E
:102F20007047000070B5002930DB044600282FD020
:102F30000568D5B18368194442688A4217D2C368CC
:102F400043BB4E0015D4154B1B68304698470546C9
:102F5000A0B16268216867F033FD114B1B682068DF
:102F6000984766602560A3681D44284670BD1D44CF
:102F7000FBE7002910DB6FF00046E4E7084B1B6815
:102F800020689847002363602360EEE70025ECE7A4
:102F90000546EAE70025E8E70025E6E754240008AF
:102FA0005024000838B505460C46D0E9060163F008
:102FB00085FF014311D154B102212046FFF7B2FF32
:102FC000044614B10F4B1B882380204638BD0E4B9E
:102FD0001B68022098470446F3E76CB11521204690
:102FE000FFF7A0FF0446002CEFD0D5E906230749E0
:102FF000204665F0A1FAE8E7034B1B6815209847C7
:103000000446F0E7F80E071054240008B8DB061059
:1030100070B5064670B167F0E1FC441C064B1B68B6
:1030200020469847054618B12246314667F0C8FC4D
:10303000284670BD0546FBE7542400082DE9F843F7
:103040000E4618B10546844600241AE069B10321F2
:103050003046FFF767FF0646002E00F0C280624B45
:103060001A889B783280B370BBE0604B1B680320EA
:1030700098470646F0E7012300E001231C430CF1CA
:10308000010C9CF800305BB15A1ED2B21E2AF4D952
:10309000222B03D05C2BEED00023EFE70123EDE7DA
:1030A000ACBBACEB0504C6B1E11C3046FFF73AFF00
:1030B0000646002E00F0958037464FF0220807F8AC
:1030C000018B2946384667F09BFC07F8048004F121
:1030D000010C002307F80C3083E0444B1B68E01C14
:1030E00098470646E5E71F2C0FD809F10609013776
:1030F0003C7884B109F1010821463D4866F01EFC88
:103100000028F0D009F10209F1E7C146EFE72F46A8
:103110004FF00009ECE7C6B109F103013046FFF7B3
:1031200001FF0646002E5CD03446222304F8013B02
:103130002B78002B51D01F2B0ED9222B0CD05C2BBF
:103140000AD0013504F8013BF2E7284B1B6809F16E
:10315000030098470646E5E720465C2300F8013B5C
:1031600015F8012B222A15D8082A31D3A2F1080319
:103170001A2B2DD8DFE803F01828202C1C242C2C27
:103180002C2C2C2C2C2C2C2C2C2C2C2C2C2C2C2C7F
:103190002C2C14005C2A1BD15C2363700234C7E71B
:1031A000222363700234C3E7622363700234BFE7F3
:1031B000662363700234BBE76E2363700234B7E7A3
:1031C000722363700234B3E7742363700234AFE791
:1031D000084965F0B1F90634AAE7222323700023D9
:1031E00063703046BDE8F883C0DB06105424000845
:1031F000C4DB0610CCDB061008B50069FFF71EFF24
:1032000008BD00002DE9F04F89B0804601911746B6
:103210001D468368002601E001361B68002BFBD1A8
:1032200066BB9DB187B1019B191D2846FFF77AFE49
:103230000446FCB123467B2203F8012BB7B1A31C43
:103240000A22627001990FE00321EEE7A44B1B688C
:1032500027B1019A101D98470446EAE70320FAE7D0
:10326000092203F8012B01368E42F9D37D221A7010
:1032700000225A70204609B0BDE8F08F002D00F002
:10328000A980D5F808B0E7B14FF0020A0AF10101B0
:103290002846FFF747FE04460028EBD003467B2272
:1032A00003F8012B17B1831C0A22427000221A7006
:1032B000AB685344AB60D8F80860019B03F1010987
:1032C00020E04FF0010AE1E749462846FFF72AFED1
:1032D00004460028CED0002303E0092204F8012B85
:1032E00001334B45F9D3AB684B44AB600EE04FF074
:1032F000000836E0002338E000232370AB68434425
:10330000AB603668002E45D0002FDDD12946306AEB
:10331000FFF794FE04460028ACD02846FFF7F2FDE4
:10332000A86051462846FFF7FDFD04460028A1D0BD
:103330003A2303700FB109234370AB685344AB6069
:103340002B463A464946304600F058F904460028D4
:1033500090D02846FFF7D6FDA860002FC7D04FF0C9
:1033600001083368002BC5D00123984408F10101FE
:103370002846FFF7D7FD044600283FF47BAF3368AB
:1033800013B12C2304F8013B002FB5D00A2304F815
:10339000013BB1E787B1019B991C2846FFF7C2FDAD
:1033A000044600283FF466AF87B97D2323700023CD
:1033B00063702C685C445DE70221EEE7092304F8A2
:1033C000013B0BF1010B9345F8D3EEE74FF0000BF7
:1033D000019AF8E7B400424B1B68204698470590D5
:1033E000002800F007813E4B1B682046984702905A
:1033F000F8B122460021059866F012FB2246002112
:10340000029866F00DFBD8F80880019B5A1C0492C4
:10341000002F43D0083303934FF0000BDA46069693
:10342000DDF8149007954546B8465F46DDF808B0CC
:103430000CE02C4B1B6805989847029C1AE7002269
:103440001344039A1344023303932D684DB347BBCF
:103450000021286AFFF7F2FD04464FEA8A064BF87E
:103460002A00002342460499284600F0C7F849F88C
:1034700006000AF1010A6CB170B167F0AFFA0646B6
:10348000204667F0ABFA3318B8F1000FD7D0019A95
:103490000332D5E70127D8E70127D6E707230393AF
:1034A000BAE7069EBB464746079DBBF1000F2DD1EC
:1034B0000B4B1B6803989847044638B305467B239B
:1034C00005F8013B17B1851C0A2343704FF0000833
:1034D00085F800800396DDF814B0049E04943BE068
:1034E00054240008502400080134B44214D2A70028
:1034F00059F8240010B1404B1B68984758F8070052
:103500000028F1D03C4B1B689847EDE70024DDF81C
:103510001480DDF80890E8E7374C23680298984754
:103520002368059898472C46A4E6092205F8012B44
:103530000133B342F9D314E00023FAE700232B70E0
:103540002D4C2368029A52F80900984723685BF8CB
:103550000900984708F10108039B984532D2002FD3
:10356000EAD14FEA8809029B53F828A0504667F039
:1035700035FA044602465146284667F021FA2B19CF
:1035800003F1010A3A222A551FB103F1020A092266
:103590005A705BF80910504667F032FA5BF8090080
:1035A00067F01CFA0AEB0005039B013B434503D07F
:1035B0002C230AF800300135002FBFD00A2305F86C
:1035C000013BBBE7049C0C4E336802989847336874
:1035D000059898475FB97D232B7000236B7049E6EF
:1035E000092205F8012B01338B42F9D3F3E70023BD
:1035F0000199F9E7059C3DE650240008F8B5064618
:10360000002800F0C4801C46002B78D0037B202BC0
:1036100015DC202B00F2BD80DFE803F0374429BB26
:1036200051BBBBBB5FBBBBBBBBBBBBBB65BBBBBB06
:10363000BBBBBBBBBBBBBBBBBBBBBBBB6B00402BF0
:1036400013D10569002D40D0284667F0C7F9071D42
:1036500039462046FFF766FC0546002800F09A80B0
:103660003A46316967F0ACF994E0002592E0052113
:103670002046FFF757FC0546002800F08B80474B9B
:10368000186828601B792B7184E006212046FFF71B
:1036900049FC054600287DD0414B186828609B886E
:1036A000AB8077E005212046FFF73CFC054600286B
:1036B00070D03C4B186828601B792B716AE021465A
:1036C0003046FFF76FFC054664E0E368002B61D1EC
:1036D000354B1B68206898475CE021463046FFF771
:1036E0008BFD054656E02346304600F05FF8054660
:1036F00050E023463046FFF785FD05464AE0037B50
:10370000202B14DC202B47D8DFE803F01F241A46B7
:10371000294646462F46464646464646354646468E
:103720004646464646464646464646463B00402BAB
:1037300004D10069FFF76CFC05462BE0254629E023
:103740001648FFF765FC054624E01548FFF760FCC6
:1037500005461FE01348FFF75BFC05461AE0002111
:103760003046FFF71FFC054614E000213046FFF706
:1037700043FD05460EE00023304600F017F80546ED
:1037800008E000233046FFF73DFD054602E0054610
:1037900000E000252846F8BD2546FBE7D4DB0610EF
:1037A000DCDB0610E4DB0610502400082DE9F04FA6
:1037B00083B08146884615461F468368002401E091
:1037C00001341B68002BFBD19CB1002F68D0D7F8C7
:1037D00008A001213846FFF7A5FB0646002800F0A7
:1037E000EC805B230370BB680133BB60D9F80840F1
:1037F0001DE06FB103213846FFF794FB0646002E0B
:1038000000F0DB80704B1A889B783280B370D4E074
:103810006E4B1B68032098470646F0E74FF00109FE
:103820001CE000221A70BB684B44BB60246844B3A0
:103830003B462A4608F101012046FFF7DFFE064617
:10384000002800F0BA803846FFF75CFBB8602368B8
:10385000002BEBD0002DE1D04FF0020909F101015E
:103860003846FFF75FFB0646002800F0A6800346B7
:103870002C2203F8012B002DD3D0831C2022427070
:10388000CFE702213846FFF74DFB0646002800F03F
:1038900094805D230370002343703E6856448CE09F
:1038A000A6004A4B1B68304698478246002800F025
:1038B00088803246002166F0B3F8D9F8086000230A
:1038C00099464FF0050B009401971F4606E0002330
:1038D00003445B4403F1020B3668A146A6B19FB9CD
:1038E00000232A4608F101013046FFF787FE09F15F
:1038F00001044AF8290028B167F070F8002DE6D0DD
:103900000123E5E70127E7E7009C3B46019FC3B998
:103910002E4B1B685846984798B180465B2308F8A1
:10392000013B00274770A14600901BE0284B1B6815
:1039300098470135AC4206D95AF825000028F5D140
:10394000F7E70025F6E7224B1B68504698473E46AE
:1039500033E000221A7098461D4B1B685AF80B0082
:1039600098470137B9451DD94FEA870B5AF82740C8
:10397000204667F033F8064602462146404667F087
:103980001FF8B04409F1FF33BB42E5D043462C2277
:1039900003F8012B002DDCD008F10203202288F867
:1039A0000120D6E7009E0A4B1B68504698475D23CE
:1039B00088F80030002388F80130304603B0BDE8B5
:1039C000F08F0646F9E700BFECDB06105424000830
:1039D0005024000838B5044616E0E36813F4807FED
:1039E00004D1206910B10F4B1B689847E36813F4AA
:1039F000007F04D1206A10B10A4B1B689847094B1D
:103A00001B68204698472C4654B12568E36813F498
:103A1000807FE2D1A0680028DFD0FFF7DBFFDCE782
:103A200038BD00BF5024000808B500231A461946C7
:103A3000FFF7E4FD08BD71B10A4660B108B58368BF
:103A40003BB118461B68002BFBD11146FFF746FA25
:103A500008BD8160FCE77047B2B170B506460D46FF
:103A60001446D36813F4007F04D1106A10B1074BD9
:103A70001B6898472562E36843F40073E3602146BE
:103A80003046FFF7D8FF70BD704700BF50240008D4
:103A900038B5054614460846FFF7BAFA01462246ED
:103AA0002846FFF7D9FFE36823F40073E36038BDCD
:103AB00070B504460D46FFF715FA064660B10423BB
:103AC000C36000220D4B2046294663F015F928B14A
:103AD00000220A4BC6E90623304670BD0022084B7F
:103AE0002046294663F0FEF820B10022044BC6E9C7
:103AF0000623F1E7C6E90645EEE700BF0000E04314
:103B00000000E0C338B50446FFF7ECF9054638B1CC
:103B10000823C3602046FFF77BFA0446286108B1FA
:103B2000284638BD2846FFF755FF2546F8E708B573
:103B3000FFF7D8F908B12023C36008BD00B583B0F2
:103B400001A9094B186808F07EFC019048B14FF0BC
:103B5000E0234FF08052C3F8042DBFF34F8FBFF323
:103B60006F8F03B05DF804FB8031000808B502498F
:103B7000024806F0EFFB08BDF822000800003640BE
:103B800008B5024850F050F808BD00BF6024000896
:103B900010B50C4C204604F005FF0B490B484FF0C4
:103BA000E9FD0B4B4FF40022C3F884215A60FFF764
:103BB000E7FF22460749022004F008FF204604F0F0
:103BC00017FE10BDF82200086D3B0010F0DB061058
:103BD00000E100E03D3B001038B52B4C21460020B1
:103BE00007F0D1FA054622460021012007F0DBFA52
:103BF000044675B1254B1B685BB9254B01221A7031
:103C0000244B186840B100233222214908F030FECD
:103C100002E01F4B00221A7074B11F4B1B685BB986
:103C20001E4B01221A701E4B186840B1002332222D
:103C30001A4908F01DFE02E0184B00221A701249C2
:103C4000022007F0C6FA03681B88164AA2FB03236A
:103C50005B08154A1380027914490A705AB1144A54
:103C60001288934207D0134B186820B100233222E8
:103C70000D4908F0FDFD054B1D60074B1C600A4B0C
:103C80001A880B4B1A8038BDF822000870310008E2
:103C9000743100088C310008783100087C3100084C
:103CA00090310008ABAAAAAA843100088831000824
:103CB000863100089431000808B50021012008F081
:103CC000B7FD174B186000220121084608F072FD6D
:103CD000144B186000220121084608F06BFD124BBE
:103CE0001860002202210A2008F064FD0F4B1860C2
:103CF000FFF74EFF0E4806F025FB4FF0FF31084B53
:103D0000186808F0B2FE0A4C204604F0D5FDFFF713
:103D100063FF204606F016FB322009F0E5FAECE7D7
:103D2000803100088C31000890310008943100087F
:103D3000F822000800B59FB000220C21042008F0F2
:103D400039FD804B186000223421042008F032FD38
:103D50007D4B18607D4865F083FD7D4865F0E6FD8C
:103D60007C4865F0E3FDD8E000238DF805307A4B00
:103D70001B6833B100220DF10501784B186808F07B
:103D8000C9FB0023ADF80830754B186818B1002244
:103D900002A908F0BFFB00238DF80630714B1868AC
:103DA00020B100220DF1060108F0B4FB00238DF8CC
:103DB00007306D4B186820B100220DF1070108F0A3
:103DC000A9FB0023ADF80A30684B186820B1002227
:103DD0000DF10A0108F09EFB654A13680133136078
:103DE00006939DF804308DF81C309DF805308DF851
:103DF0001D30BDF80830ADF81E309DF806308DF846
:103E000020309DF807308DF82130BDF80A30ADF82C
:103E100022304C4B186820B10023642206A908F018
:103E200027FD544B186818B1002204A908F072FB52
:103E3000514B186818B1002209A908F06BFB4F4BD1
:103E4000186818B1002203A908F064FB4C4B1C68E9
:103E500001341C603422002111A865F0E1FD1194A9
:103E60009FED488ADDED047A67EE887A17EE900AB6
:103E700062F064FC62F09EFA0022434B62F0E0FDC7
:103E800062F064FF1290DDED057A67EE887A17EE36
:103E9000900A62F053FC62F08DFA00223A4B62F015
:103EA000CFFD62F053FF1390BDF92430ADF85030D0
:103EB000BDF92630ADF85230BDF92830ADF8543098
:103EC000BDF93030ADF85C30BDF93230ADF85E3060
:103ED000BDF93430ADF86030BDF93C30ADF8683034
:103EE000BDF93E30ADF86A30BDF94030ADF86C3008
:103EF000039B1D93144B186820B10023642211A961
:103F000008F0B6FC214B1B6898690521803047F00A
:103F10007CFC4FF47A7009F0E7F900238DF8043047
:103F20000D4B186800283FF41FAF002201A908F0CC
:103F3000F1FA01287FF418AF9DF80410144865F0D9
:103F40008FFC11E7A0310008A4310008F8DB06104F
:103F500004DC061020DC0610683100086C31000813
:103F6000CC3300088C3100089031000894310008EF
:103F700098310008E4340008C432000844310008D5
:103F80009C3100080000C84200005940F80B0108AD
:103F90003CDC06107047000070B582B0FEF7AAFC4A
:103FA00000B101BE0123062219460D203FF0B4FDE9
:103FB00000B101BE01230622194659203FF0ACFD95
:103FC00000B101BE00233B220521092050F0EAFD8B
:103FD00000B101BE62B64FF4E1322821292050F031
:103FE000A1FD2B4865F03CFC00240194009423467D
:103FF00080222849284808F0C5FF0194022600962F
:1040000023464FF480722549254808F0BBFF0194F0
:104010000125009523464FF420722249224808F0DA
:10402000B1FF01940323009323464FF420721F49EC
:104030001F4808F0A7FF0194009623464FF44072F2
:104040001C491D4808F09EFF0194009523464FF43B
:1040500020721A491A4808F095FF0194042300932E
:1040600023464FF4C0621749174808F08BFF0194AC
:104070004FF0FF33009323464FF400621349144876
:1040800008F080FF08F0B2FF01BE204602B070BD0C
:10409000F8DB061054DC0610A92E00105CDC0610BC
:1040A000F946001070DC0610B93C00107CDC0610EC
:1040B0002D49001088DC06106D460010A0DC0610AB
:1040C000F1290010ACDC0610353D0010B8DC0610FC
:1040D0008544001010B584B03CF0D6FA50BB1D4AA0
:1040E000136843F0040313604FF4007008F070F895
:1040F000194B186018B3174A136843F0080313608C
:10410000164B029300230193154B0093154B164A4F
:1041100012684FF400713CF011FB0446A8B90D4A37
:10412000136843F010031360104865F0FFFB20464E
:1041300004B010BD04460E4865F0F8FBF7E70D48E3
:1041400065F0F4FB4FF0FF34F1E70B4865F0EEFB50
:10415000EDE700BFB4310008AC310008A831000819
:10416000114400107C240008E424000810EE06101E
:10417000C4ED0610ECED06103CEE061030B5A5B00F
:1041800054F0E2FE18B10025284625B030BD06AC3B
:1041900078220021204665F043FC2B4B93E8070072
:1041A00084E80700294B03CBCDF83900CDF83D104A
:1041B0001A889B78ADF841208DF84330244B1F932B
:1041C0002146244865F04CFB00242546772C32D844
:1041D00001A906A854F088FC054668B1C4F177032C
:1041E00041F2883201461C4865F03AFB41F28830C2
:1041F00009F07AF80134E9E706A9184865F030FBC0
:10420000174A136843F0020313609DF80430042B2F
:1042100009D0062BB8D102A813F066FF0146114859
:1042200065F01EFBB0E702A812F07EF801460E48CA
:1042300065F016FBA8E70D4865F078FB0A210C48ED
:1042400065F00EFBA0E700BF5CEE061068EE0610FE
:104250000400400074EE0610FCEE061094EE06100A
:10426000B4310008E0EE0610C4EE06105CEF061054
:104270008CEF061070B588B0334A02AB07CA03C38F
:1042800023F8022B120C1A700025CDF81350CDF82C
:104290001750CDF81B508DF81F502C4C2C4BA360A1
:1042A0002C4B23610A23A3810823A3820DEB030671
:1042B0002660304666F092FB81B2A180264B1A68D8
:1042C00000929B883246254865F0CAFA2C4613E0D6
:1042D0001E49234B18683CF059FB054600B3C4F156
:1042E00095034FF4FA6201461E4865F0B9FA4FF49F
:1042F000FA6008F0F9FF0134952C1CD854F024FE24
:104300000028E5D1184865F011FB184A136823F01E
:1043100002031360FFF732FF05460028D8D007E0FC
:10432000134865F003FB114A136843F02003136040
:10433000284608B070BD0F4865F0F8FA05210E4810
:1043400065F08EFAF4E700BF3CF306108424000801
:10435000C0F30610C4EF06107C240008D0EF06104E
:10436000A83100087CF006100CF00610B4310008EB
:104370005CF00610D0F00610FCF0061008B51F4BDC
:104380001B6813F0200F19D11C4B1B6813F0100F82
:104390001CD11A4B1B6813F0080F1CD1174B1B685C
:1043A00013F0040F1CD1154B1B6813F0020F1AD128
:1043B000124B1B6813F0010F1DD108BD104865F0AA
:1043C000B5FA104B18683CF0BBFCDDE70D4B1868E4
:1043D0003CF0EEFCDDE70C4B186807F009FFDDE769
:1043E0003CF03AFDDFE754F025FB0028E0D1074818
:1043F00065F09CFADCE754F00BFFDEE7B43100080F
:1044000030F10610A8310008AC31000858F1061050
:1044100084B000B583B005A880E80E009DF8143084
:10442000D3B1012B21D1134A136823F02003136069
:10443000114865F07BFA02238DF8073000234FF016
:10444000FF320DF107010D48006808F011FA03B0C2
:104450005DF804EB04B07047064A136843F040036C
:10446000136007A800F0FEF9F1E7054865F05EFA71
:10447000EDE700BFB431000878F10610B031000854
:10448000A8F1061000B585B000228DF80C2001219E
:10449000032008F08FF93A4B186003A854F012F982
:1044A00028BB384A136843F001031360364865F0AF
:1044B0003DFAFFF763FEE8B9FFF70CFED0B9FFF74E
:1044C000D9FEB8B94FF4FA6008F00EFF2F4B0193F4
:1044D0000223009300234FF400622D492D4808F079
:1044E00051FD01281ED02C4865F020FA02E02B482F
:1044F00065F01CFA2A4865F019FA2A4B186808B1C9
:1045000009F0B0FA214B186808B109F0ABFAFFF7CF
:1045100035FF254865F00AFA002009F0A3FA05B036
:104520005DF804FB2148FFF735FD06E0204865F003
:10453000FDF9FFF79FFE0028DCD14FF0FF320DF1AF
:104540000F010F4B186807F0E5FF0128F5D19DF822
:104550000F30022BF1D1174B18683CF0F1FB54F0EF
:10456000F3FC0028E2D1074A136823F0020313602A
:10457000114865F0DBF9FFF701FE0028D6D0B9E756
:10458000B0310008B431000808F20610D03300083A
:1045900030F206105D47001040F20610D4F106100C
:1045A000E0F20610D433000810F3061064F206108F
:1045B000C0F20610A83100089CF2061000B587B0C2
:1045C00001230622194663203FF0A6FA00B101BE7E
:1045D000002304930393082202920193FF23009384
:1045E000622361226021104844F0F8F800B101BE56
:1045F0000E490D4843F0B4FD00B101BE63220A49E3
:104600000B4852F003FD38B10A4B19780A4865F09F
:1046100027F907B05DF804FB064B01221A70074822
:1046200065F084F9F5E700BFB831000800127A00A0
:1046300028320008C032000854F3061074F3061044
:1046400008B50749074852F00BFD38B9064B186802
:1046500020B100236422024908F00AF9002008BDB5
:10466000A032000828320008C432000808B5002231
:104670002021052008F09EF8064B1860FFF79EFFEA
:1046800003E001BE012008F02FFEFFF7D9FF00284C
:10469000F7D1F7E7C432000810B58AB000225621DE
:1046A00011483DF05DFA00B101BE0DF1140C0F4C44
:1046B0000FCCACE80F002368CCF8003005A90A48FD
:1046C0003CF0CCFE00B101BE03AB094A92E8030006
:1046D00083E803000093FF235622034905483CF07A
:1046E000D1FF0AB010BD00BFD43200088CF3061011
:1046F000A0F30610C832000800B583B000220221E2
:10470000084608F057F8114B1860FFF7C5FF08E09E
:10471000002364220DF1060108F0AAF8012008F038
:10472000E3FD0B483DF0BEF80A4B186000EB40007B
:10473000C000094B83FB0023C017C0EB2350ADF82A
:104740000600024B18680028E2D1E7E7CC330008E6
:10475000C8320008C83300084B6C395170B5ADF54C
:10476000327D0BE0364B186828B1002204A907F00F
:10477000D1FE012838D0012008F0B6FD314B186871
:104780000028EFD0002201A907F0C4FE0128E9D1DA
:1047900062AD294601A8FEF77FF92B4C2B4E6660CF
:1047A00022232381E560284666F018F9206132460D
:1047B0002946274865F054F82146264B18683CF0F6
:1047C000D3F901460028CDD0234865F049F80123EC
:1047D0008DF8473000234FF0FF320DF147011F489D
:1047E000006808F045F8BDE712AD294604A8FEF7B9
:1047F000DFF9154C1A4E666021232381E5602846B7
:1048000066F0ECF8206132462946114865F028F838
:104810002146104B18683CF0A7F901460028AAD0A1
:104820000D4865F01DF801238DF8473000234FF047
:10483000FF320DF147010948006808F019F89AE7BE
:10484000A4310008A0310008E8240008A8F30610ED
:10485000CCF30610A831000800F40610B0310008AF
:1048600038F4061030B585B0C56804690195009428
:1048700090F9003042680189174864F0F1FF022383
:104880008DF80C30072C17D0082C20D12246294651
:10489000124865F060F8D0B901238DF80D3010484A
:1048A000FFF778FB00234FF0FF3203A90D480068A3
:1048B00007F0DEFF05B030BD224629460A4865F004
:1048C0004AF80028E0D100238DF80D30E7E70748CB
:1048D00065F02CF8EEE700BF68F40610ECF4061063
:1048E00034F50610D8330008E4F40610F8F4061086
:1048F00008B500233022312109483FF06DFD00B199
:1049000001BE084906483FF0DDFD00B101BE772237
:104910000349054852F05CFF00B101BE08BD00BF6D
:10492000DC330008FC2400089034000800B585B092
:1049300000220821052007F03DFF0D4B1860FFF70E
:10494000D7FF07E00023C82202A907F091FF01204A
:1049500008F0CAFC01AA6946064852F0E2FE009B34
:104960000293019B0393024B18680028EAD1EEE7FB
:10497000E4340008903400080230800803D001308D
:104980000238FCD100BF00BF7047EFF3108072B651
:10499000704780F31088704750B1C2695AB1026AFB
:1049A00062B1436A0BB1002070474FF0FF3070478F
:1049B0004FF0FF3070474FF0FF3070474FF0FF303F
:1049C00070470222C2710823437110210171032133
:1049D0008171C27343731423037300238373436889
:1049E0008360C368036170474B790C2B0BD84A7AFC
:1049F00093420BD0027802F0F00203F00F0313434E
:104A00000370002070476FF003007047002070476C
:104A1000CB79072B0CD8CA7A93420CD0027802F0DB
:104A20008F021B0103F070031343037000207047D3
:104A30006FF003007047002070478B790C2B0BD868
:104A40008A7A93420BD0027802F0F00203F00F034F
:104A500013430370002070476FF00300704700207D
:104A600070474B7B0D2B0BD84A7C93420BD00278BE
:104A700002F0F00203F00F031343037000207047AD
:104A80006FF00300704700207047CB7B022B09D8E2
:104A9000027802F0CF021B0103F0300313430370CE
:104AA000002070476FF0030070478B7B042B0BD8FE
:104AB0008A7C93420BD0027802F0F80203F00703DD
:104AC00013430370002070476FF00300704700200D
:104AD00070470B7DC3F38103032B13D8DFE803F08A
:104AE00002060A0E01230380002070470223038080
:104AF00000207047062303800020704708230380AE
:104B0000002070476FF0040070478BB110B59C46D1
:104B1000DC6984B192B19B78012B06D013460A461A
:104B200001469CF80100A04710BD40F08000F5E769
:104B30004FF0FF3070474FF0FF30F5E76FF00B009C
:104B4000F2E738B504460D460B46022201464020E6
:104B5000FFF7DBFF00B138BD29462046FFF744FFD1
:104B60000028F8D129462046FFF752FF0028F2D14D
:104B70002946601CFFF761FFEDE738B504460D4696
:104B80000B46022201464220FFF7BFFF00B138BDAD
:104B900029462046FFF765FF0028F8D12946204620
:104BA000FFF773FF0028F2D12946601CFFF77DFF55
:104BB000EDE700B583B0034600228DF807200122FF
:104BC0000DF107010220FFF7A0FF9DF807305B08F9
:104BD0008DF8073003F00F038DF80730012B08D054
:104BE000022B09D0032B0AD0072B0BD003B05DF8A2
:104BF00004FB6FF00500F9E76FF00600F6E76FF0D1
:104C00000700F3E76FF00800F0E730B585B0054620
:104C10000C4613460021019102918DF80C10821D63
:104C200001A91220FFF771FF58BB02469DF805301D
:104C30001B021BB29DF804100B4323809DF8073024
:104C40001B021BB29DF806100B4363809DF80930D0
:104C50001B021BB29DF808100B43A380032D04D048
:104C60000023A360104605B030BD9DF80A109DF8E2
:104C70000B009DF80C301B0443EA00230B43A36098
:104C8000F0E76FF00102EDE710B584B00C46134673
:104C90000021009101910291CDF80B1020BB06225A
:104CA00069460C20FFF731FF0246002848D19DF8E5
:104CB00001301B021BB29DF800100B4323809DF8AE
:104CC00003301B021BB29DF802100B4363809DF85A
:104CD00005301B021BB29DF804100B43A380002378
:104CE000A360104604B010BD02460C3269460C2089
:104CF000FFF70BFF024630BB9DF801301B021BB2D1
:104D00009DF800100B4323809DF803301B021BB25B
:104D10009DF802100B4363809DF805301B021BB207
:104D20009DF804100B43A3809DF80C109DF80D0016
:104D30009DF80E301B0443EA00230B43A360D0E729
:104D40006FF00102CDE76FF00102CAE770B584B0E1
:104D500006460D4614460022009201920292CDF8BA
:104D60000B2000F10C0269460C20FFF7CEFE002854
:104D700045D102469DF801301B021BB29DF8001080
:104D80000B4323809DF803301B021BB29DF80210D9
:104D90000B4363809DF805301B021BB29DF8041085
:104DA0000B43A3809DF807301B021BB29DF8061031
:104DB0000B432B809DF809301B021BB29DF8081095
:104DC0000B436B809DF80B301B021BB29DF80A1041
:104DD0000B43AB80032E05D00023AB60A3601046CD
:104DE00004B070BD9DF80C109DF80D009DF80E30BC
:104DF0001B0443EA00230B43AB60A360EFE76FF0B3
:104E00000102ECE72DE9F843002B37D0054689462F
:104E100090461E461C6A002C33D0002A34D09B7862
:104E2000012B08D0337A112B08D0337C152B05D0F9
:104E3000002427461EE000F07F05F3E743464A467C
:104E400029467078A0470746736A01209847F7B94A
:104E50003846BDE8F883376A012309EB0402294686
:104E60007078B84707460135EDB2736A012098475C
:104E70000134E4B2A3B24345EDD3E8E74FF0FF3786
:104E8000E6E74FF0FF37E3E76FF00B07E0E76FF07F
:104E90000107DDE710B582B004460023ADF8043009
:104EA000014601A8FFF74DFE08B102B010BD234630
:104EB000012201A94020FFF7A5FF0028F5D1637961
:104EC0006372E379E372234601220DF1050141206B
:104ED000FFF798FF0028E8D1A379A372E5E710B5A2
:104EE00082B004460023ADF80430014601A8FFF764
:104EF00044FE08B102B010BD2346012201A94220A0
:104F0000FFF780FF0028F5D1637B6374E37BE374D4
:104F1000234601220DF105014320FFF773FF00280E
:104F2000E8D1A37BA374E5E730B583B004460D4612
:104F300000238DF807300B46012201464020FFF781
:104F4000E4FD38B92B79122B06D0227894F9003081
:104F5000002B15DB03B030BD237863F07F03237093
:104F60002B46012221464020FFF74CFF0028F1D1BB
:104F70002B4602220DF107015820FFF743FFE9E716
:104F800002F07F0222702B46012221464020FFF7CB
:104F900039FFDFE730B583B000238DF807300279A1
:104FA000A2F11003DBB2022B20D80446037A9A4206
:104FB00003D10025284603B030BD01460DF107009E
:104FC000FFF7B2FF05460028F4D123460122211D38
:104FD0007E20FFF717FF0546237A102B02D0237996
:104FE0002372E7E7636A05209847F8E76FF0030547
:104FF000E0E738B50446027BA2F11403DBB2012BD3
:1050000001D9172A20D1237C9A4202D100252846B3
:1050100038BD2346012204F10C017E20FFF7F2FE89
:105020000546237C142B04D0172B06D0237B237436
:10503000EDE7636A51209847F8E7237B152BF5D1FC
:10504000636A0A209847F1E76FF00305DFE72DE96F
:10505000F04F85B0824691461F460E9D8DF8071091
:105060000024029403945FFA80FBD8462646B3B22C
:10507000BB423AD22B4601220DF107014D20FFF72A
:10508000C1FE04466B6A0A209847002CEFD12B46DC
:10509000524602A90420FFF738FD044618BBBA4562
:1050A00003D95FFA87F8002313E0BB1B5345FADAF4
:1050B0005FFA87F8A8EB06085FFA88F8F3E7F218BA
:1050C00003F11001694411F8081C09F802100133BA
:1050D000DBB24345F3D39DF807305B448DF80730CE
:1050E0005E44F6B2C3E76FF00104204605B0BDE8A8
:1050F000F08F10B582B0044600238DF807301923D5
:105100008DF80630034601220DF106017E20FFF7DF
:1051100079FE80B9636A01209847234601220DF188
:1051200007016B20FFF7F1FC9DF8073043F02003E7
:105130008DF8073008B102B010BD234601220DF1F1
:1051400007016B20FFF75EFEF5E730B583B004463C
:10515000034601220DF107014420FFF7D6FC054666
:1051600010B1284603B030BD237DC3F303138DF87F
:105170000730234601220DF107014420FFF742FECC
:105180000546636A0A209847EBE730B583B0B6233B
:105190008DF8073010B30546436A13B30346012266
:1051A0000DF107017E20FFF72DFE04466B6A0120FA
:1051B000984714B9AB78012B03D05CB1204603B0FB
:1051C00030BD2B4601220DF107017F20FFF79DFC2A
:1051D0000446F2E72846FFF7F4FBEFE74FF0FF3411
:1051E000ECE74FF0FF34E9E730B583B00446FFF752
:1051F000D3FB10B9A378012B04D008BB0023237084
:1052000003220EE0234601220DF107017F20FFF764
:105210007CFCF2E72346012221460020FFF775FCC3
:105220002A46531EDDB212B12378D12BF2D148B9F0
:105230002378D12B09D1FF23E3702046FFF7A5FF88
:1052400003B030BD6FF00200FAE76FF00200F7E73D
:1052500058B110B50446436A53B1FFF79BFE00B145
:1052600010BD2046FFF7C5FEFAE74FF0FF3070474C
:105270004FF0FF30F4E7A8B110B50446436AA3B17C
:10528000FFF708FE00B110BD2046FFF728FE0028FA
:10529000F9D12046FFF7DCFF0028F4D12046FFF7C4
:1052A00088FCF0E74FF0FF3070474FF0FF30EAE73F
:1052B00010B584461446C0F380000CF003021CF0C5
:1052C000040F00D00320CBB1022A0BD0032A0FD049
:1052D000012A02D06FF0040010BD91B11A46FFF709
:1052E00094FCF9E784B11A462146FFF7CDFCF3E7B9
:1052F0006CB179B12246FFF729FDEDE74FF0FF30A1
:10530000EAE74FF0FF30E7E74FF0FF30E4E74FF018
:10531000FF30E1E74FF0FF30DEE7F0B585B00E4635
:105320000021ADF80E10CBB1054617461C46DB69CF
:10533000BBB1237D13F0010F16D021460DF10E00F5
:10534000FFF7C7FB08B105B0F0BD00943B463246FD
:105350002946BDF80E00FFF77AFEF4E74FF0FF3064
:10536000F1E74FF0FF30EEE76FF00400EBE72DE9D7
:10537000F04182B08DF807009BB30F4616461D46DC
:105380001B6AA3B34FF00008444603E008F1010391
:105390005FFA83F81FFA88F3B34224D22B46012226
:1053A00039464F20FFF72EFD04466B6A0A209847C6
:1053B000002CEBD12B4601220DF107014E20FFF707
:1053C00021FD04466B6A0A209847002CDED1731E2B
:1053D0009845DBDA01379DF8073001338DF8073047
:1053E000D4E74FF0FF34204602B0BDE8F0814FF023
:1053F000FF34F8E730B583B00446437D5B008DF899
:10540000043000238DF80530034601220DF105011B
:105410004C20FFF77AFB054610B1284603B030BD9B
:105420009DF9053003F07F03217DC1F3400243EA7B
:10543000C2135AB28DF8053022F00303C1F3810183
:105440000B438DF805302346022201A94B20FFF7BC
:10545000D9FC0546636A0A209847DEE710B5044682
:10546000FFF747FE00B110BD2046FFF7C3FFFAE784
:1054700010B50446FFF790FA38B9237D13F0010FF9
:1054800006D02046FFF7EAFF10BD4FF0FF30FBE7E4
:105490006FF00400F8E738B505460C460846FFF7FC
:1054A0007BFAF8B9237D13F0010F1ED023460122A9
:1054B00029464D20FFF7A6FC0546636A0A20984757
:1054C0000DB1284638BD2046FFF73FFE05460028AF
:1054D000F7D1237D6FF3410323752046FFF78AFF41
:1054E0000546EEE74FF0FF35EBE76FF00405E8E720
:1054F00038B505460C460846FFF74EFA58B9237DE5
:1055000003F00303012B09D1234608222946042076
:10551000FFF7FBFA38BD4FF0FF30FBE76FF00400F8
:10552000F8E760B1C2686AB1026972B142697AB1E2
:1055300043680BB1002070474FF0FF3070474FF0C9
:10554000FF3070474FF0FF3070474FF0FF3070472B
:105550004FF0FF307047000010F5805F48D011B960
:10556000D18C002946D0002946D000B5D38C9B03AE
:1055700093FBF1F39BB2A3F580431BB203FB03FC47
:1055800092F925E06146BCF1000F22DBC91192F8C7
:1055900024C00CFB03F3DB0101FB0E33002B1BDBF0
:1055A0005B1203F5801392F91A10A03101FB03F38B
:1055B000002B14DB1B1303FB00F0002812DB40F36D
:1055C0004F3092F9183010EBC3000FD400115DF882
:1055D00004FB0CF17F01D9E703F2FF13E0E703F6C8
:1055E000FF73E7E700F5FF501F30E8E70F30EDE706
:1055F0000248704701487047004870470080FFFF2D
:1056000010F5805F48D011B9D18C002946D000290F
:1056100046D000B5D38C9B0393FBF1F39BB2A3F56B
:1056200080431BB203FB03FC92F925E06146BCF109
:10563000000F22DBC91192F824C00CFB03F3DB013D
:1056400001FB0E33002B1BDB5B1292F91B10A03108
:1056500003F5801301FB03F3002B14DB1B1303FB87
:1056600000F0002812DB40F34F3092F9193010EBB4
:10567000C3000FD400115DF804FB0CF17F01D9E7E2
:1056800003F2FF13E0E703F6FF73E7E700F5FF50CF
:105690001F30E8E70F30EDE70248704701487047D8
:1056A000004870470080FFFF10F5804F3FD030B4B6
:1056B000B2F91E40002C3DD0958B002D3ED0002924
:1056C0003ED0D38C002B3DD0CB1A1BB2B2F920C0F8
:1056D00003FB0CF3002B1ADB4FEAA30CB2F92230C8
:1056E000C31ADB0309B201FB05F2520012F50042B6
:1056F0000FD4A3EB0C0304EB224293FBF2F3B3F5BC
:10570000004F0ADA13F5004F09DC0F4B07E00333B3
:10571000E2E702F57F42FF32EBE747F6FF731846F8
:10572000002B01DB001106E003F10F00FAE7074848
:1057300000B27047054800B230BC70470348FAE732
:105740000248F8E70148F6E70180FFFF0080FFFF0D
:105750002DE9F04107460D4616461C461846FFF750
:10576000E0FE60B980466DB17EB16368324629467D
:1057700038462569A84720724046BDE8F0814FF0C1
:10578000FF38F9E74FF0FF38F6E74FF0FF38F3E75F
:1057900000B583B00B46C2788DF8072001220DF1C9
:1057A00007015120FFF7D4FF03B05DF804FB00B5FB
:1057B00083B00B4602798DF8072001220DF1070115
:1057C0005220FFF7C5FF03B05DF804FB2DE9F0415F
:1057D00006460F4690461C461846FFF7A2FE80B9C3
:1057E00005468FB16378012B01D046F080066368CF
:1057F000424639463046E668B04720722846BDE842
:10580000F0814FF0FF35F9E74FF0FF35F6E730B59F
:1058100083B005460C4600238DF807300B46012265
:105820000DF107014B20FFF7D1FF08B103B030BDE8
:105830009DF8073023F001035BB205F0010213432A
:105840008DF80730234601220DF107014B20FFF7A9
:105850007FFF0028EAD184F82A50E7E738B50446EC
:10586000FFF75FFE054610B994F82A300BB12846C1
:1058700038BD21460120FFF7CAFF0546636961680C
:1058800040F6B8309847F2E710B586B004460022DB
:10589000ADF81420049201920292ADF80C20034658
:1058A000022205A95D20FFF791FF08B106B010BDE7
:1058B0002346042204A96220FFF788FF0028F5D1BF
:1058C00023460A2201A96820FFF780FF0028EDD1B6
:1058D0009DF9143023769DF9153063769DF91230C9
:1058E000A3769DF91330E3769DF807209DF80630E6
:1058F00043EA0223A3839DF805209DF8043043EA80
:105900000223E3839DF80B209DF80A3043EA02232B
:1059100023849DF811209DF8103043EA022363840C
:105920009DF80D3084F824309DF90C3084F8253032
:105930009DF809301B0203F4FE439DF80820134331
:10594000E384B3E710B582B0044600238DF8073036
:1059500001460120FFF75BFF80B96369616840F68B
:10596000B8309847234601220DF107014020FFF788
:105970002DFF18B99DF80730322B01D002B010BDB1
:1059800023702046FFF780FFF8E730B583B0044668
:105990000D460B4601220DF107014C20FFF716FFC3
:1059A00008B103B030BD9DF8073023F006035BB2A9
:1059B000600000F0060003438DF807302B460122FB
:1059C0000DF107014C20FFF7C3FEEAE730B583B0C5
:1059D00005460C460B4601220DF107014C20FFF74E
:1059E000F5FE08B103B030BD9DF8073023F0380351
:1059F0005BB2AA78D20002F0380213438DF8073068
:105A0000234601220DF107014C20FFF7A1FEE9E733
:105A100038B504460D46FFF7D9FF00B138BD294619
:105A20002046FFF7B5FE0028F8D129462046FFF7AB
:105A3000BEFEF3E738B505460C460846FFF771FD94
:105A400030BB6D78042D24D8DFE805F0030C231556
:105A50001E002046FFF702FFD0B921462846FFF777
:105A600094FF15E02046FFF7F9FE88B92146284645
:105A7000FFF78BFF0CE02046FFF7F0FE40B9214610
:105A80002846FFF782FF03E021460020FFF7BFFE14
:105A900038BD6FF00200FBE738B504460D460846F6
:105AA000FFF73FFD80B96379013B032B2ED8DFE878
:105AB00003F0020C17220023A3700123E37023716B
:105AC00029462046FFF7A4FF38BD0023A370042316
:105AD000E3700723237129462046FFF799FFF3E778
:105AE0000523A3701723E370292323712946204639
:105AF000FFF78EFFE8E70023A3700723E3700D2371
:105B0000237129462046FFF783FFDDE76FF002008F
:105B1000DAE72DE9F04383B004460E4615461046F9
:105B2000FFF7FFFC814600283FD1002C3DD02078B4
:105B3000C008207094F901309BB25B011BB218437E
:105B4000ADF8000094F802804FEAD80884F802808B
:105B500094F903309BB25B011BB248EA0308ADF82D
:105B6000028027797F08277194F905309BB2DB0109
:105B70001BB21F43ADF80470A3799B08A371E279AF
:105B800043EA8214ADF806402A462146FFF7E4FCBA
:105B900030802A4621464046FFF732FD70802A4673
:105BA00021463846FFF780FDB080484603B0BDE887
:105BB000F083B0F1FF3F22D008B338B5C50E4301E2
:105BC0001B1A65F10005AD0045EA93759B001B1893
:105BD00045F10005ED0045EA5375DC004FF47A729B
:105BE00000232046294661F051F96FF47A73A342ED
:105BF00040F2E733AB4101D26FF0010038BD70478E
:105C0000034B0360034B0B6080231360704700BF9E
:105C1000003B000800350008034B0360034B0B609A
:105C20004FF4807313607047E83B000800370008AA
:105C300030B583B00546002301931C4B1B68C3B1EC
:105C40001A4B1B689BB1FEF7A0FE044607F0A6FDA9
:105C500050B14FF47A7303FB05F01549A1FB0031F5
:105C60008D09B0F57A7F0ED22046FEF792FE03B082
:105C700030BD10483EF044FF18B90C4B0D4A1A6075
:105C8000DEE701BEDCE7012301AA294607480068D8
:105C900043F094F80028E7D1019BAB4200D901BE44
:105CA0000198FFF786FF07F0FDF9DDE7E83400080B
:105CB000D34D6210EC34000808B508F0EDFA036823
:105CC0000BB14068984708BD2DE9F04784B00C9DA2
:105CD000002843D00F4690461C468146B5F5967F76
:105CE0003ED313B113F0070F3ED184B3002606F163
:105CF000F40006F06DFA8246002837D025F007053B
:105D0000AD083CB3564403220021012006F052FDA9
:105D1000C6F8E80000B3184BC6F8EC30C6F8F0A09F
:105D200016F0070F00D001BE029601949DF83430A2
:105D300000930E9B2A464146384607F051FEC9F8AB
:105D40000000864214D0A8B101BE002009E025F071
:105D50000706CCE70446D5E701BEDCE7074800E0CC
:105D6000064804B0BDE8F0870548FAE70548F8E7BB
:105D70000020F6E70020F4E701EFCDAB05000E06AA
:105D800006000E0601000E0610B507F02BFD0446B6
:105D9000D0F8EC20074B9A4204D001BE204607F011
:105DA0006FFBFBE700231A461946D0F8E80006F01F
:105DB0005FFDF3E701EFCDABE0B110B5044600683D
:105DC00007F050FE246807F0ADFED4F8EC200A4B33
:105DD0009A4203D007F00CFA002010BD0023C4F84B
:105DE000EC30D4F8E80006F0C3FFD4F8F00006F079
:105DF000FFF9EFE70148704701EFCDAB05000E0654
:105E0000A8B110B504460368D3F8EC10094A9142D2
:105E100003D000200023236010BD4FF0FF31D3F8E2
:105E2000E80006F022FE2046FFF7C6FFF2E7024830
:105E3000704700BF01EFCDAB05000E0680B110B575
:105E40000446017131B1042006F0E3FD206028B161
:105E5000002010BD012006F0DCFDF7E70148F8E75F
:105E60000148704701000E0605000E0698B110B5F6
:105E700004460846FFF79DFE014623792BB12068B2
:105E800006F0C4FE28B1002010BD206806F0EDFD2C
:105E9000F8E70248F8E70248704700BF00000E0626
:105EA00005000E0688B108B503792BB1006806F02D
:105EB000BBFD40B1002008BD00231A46194600680A
:105EC00006F0D6FCF5E70248F5E70248704700BF48
:105ED00002000E0605000E0628B108B5006806F09F
:105EE00047FF002008BD0148704700BF05000E06AF
:105EF00060B110B50B4611460446184606F098FCF2
:105F0000206008B1002010BD0148FCE7014870473F
:105F100001000E0605000E0630B583B00023019384
:105F2000E0B10546EFF3058303B1C9B90846FFF7B1
:105F300040FE0146EFF305844CB101AA0021286818
:105F400006F085FE70B10024204603B030BD2868FD
:105F500006F08BFD0028F7D1034CF5E7034CF3E77F
:105F6000024CF1E7004CEFE700000E0605000E06BC
:105F700000B583B00023019300B3EFF3058383B131
:105F800001A9006806F05FFA019B83B14FF0E0239E
:105F90004FF08052C3F8042DBFF34F8FBFF36F8FC4
:105FA00005E000231A461946006806F061FC18B1A6
:105FB000002003B05DF804FB0148FAE70148F8E768
:105FC00002000E0605000E0628B108B5006806F0AE
:105FD000CFFE002008BD0148704700BF05000E0637
:105FE00068B110B50B46114604460022184606F06B
:105FF000E1FB206008B1002010BD0248FCE7024828
:10600000704700BF01000E0605000E06D0B138B57E
:106010000C460546C1B1EFF305833BB100231A4698
:10602000006806F099F958B1002038BD1046FFF716
:10603000C0FD024600232146286806F019FCF2E75D
:106040000248F2E7024870470148EEE702000E06F8
:1060500005000E06C0B138B50C460546B1B1EFF3E8
:10606000058333B10022006806F0F1FD50B1002035
:1060700038BD1046FFF79DFD02462146286806F010
:1060800049FAF3E70248F3E7024870470148EFE7AF
:1060900002000E0605000E0628B108B5006806F0DD
:1060A00067FE002008BD0148704700BF05000E06CE
:1060B00028B32DE9F04182B00F4614461D468046B4
:1060C000FAB1082061F014FD0646E0B104604560B5
:1060D00077B901220D4B0093334601210C4807F09C
:1060E00013FFC8F8000028B1002002B0BDE8F0811D
:1060F0000022EFE7304661F003FD0648F5E7064869
:1061000070470548F1E70348EFE700BFB95C0010AE
:106110006461071001000E0605000E06F8B110B507
:1061200082B004460846FFF744FD02460023009370
:106130000421206807F004FF012803D068B1002083
:1061400002B010BD246807F0F5FC0246002300935E
:106150000121204607F0F4FEF0E70248F0E702488C
:10616000704700BF02000E0605000E0678B100B5AC
:1061700083B00022009213460321006807F0E0FE7E
:1061800018B1002003B05DF804FB0248FAE70248AA
:10619000704700BF02000E0605000E0658B110B58C
:1061A0000C4651B1006808F05CF8003818BF0120B7
:1061B0002070002010BD024870470148FAE700BF78
:1061C00005000E06B0B130B583B00546006808F092
:1061D00063F804460022009213460521286807F060
:1061E000AFFE10B9044803B030BD204661F088FC12
:1061F0000020F8E70148704702000E0605000E0671
:1062000030B110B5044607F095FC2060002010BDA9
:106210000048704705000E0608B5FFF7CAFC07F0F6
:1062200063F8002008BD10B582B004464FF0FF327D
:1062300069462046FFF70EFF0028F7D1009B13B1F7
:1062400001989847F2E7FFF79FFD02B010BD0000EC
:1062500070B584B004460E4601B100B901BEB36802
:1062600013B1736803B901BE002323606360A360A8
:10627000E360316901B9102108222046FFF7B0FE22
:10628000054680B90123237304F10800F2686AB15E
:1062900073683178029401910093B3680749FFF75E
:1062A00013FD054620B9284604B070BD044AEFE747
:1062B000002323732046FFF7EFFEF4E72762001068
:1062C00050F5061070B582B00446FEF75EFB054639
:1062D000237BCBB3012B13D00026237B042B24D1AB
:1062E000237B93B32846FEF754FB2046FFF7D4FEEA
:1062F000064668BBFEF749FB05460023237324E0EE
:1063000003232373FEF745FB0022009201926946A6
:106310002046FFF77BFE06460028DED0FEF735FB61
:1063200001232373FEF735FB12E02846FEF731FB0D
:1063300004F10800FFF764FD064648B9FEF725FBA7
:10634000054604232373CBE700262846FEF721FBEE
:10635000304602B070BD000070B582B00D461646E2
:10636000044618B325B3FEF710FB237B013BDBB2D9
:10637000012B1FD863680133636002232373FEF788
:1063800008FB00950196002269462046FFF73EFE75
:106390000546FEF7FAFA6368013B63600BB9012317
:1063A0002373FEF7F6FA284602B070BD01BED9E7A6
:1063B00001BED8E7FEF7EDFA004DF4E720000E0627
:1063C000401A70470238032803D8DFE800F00A04B7
:1063D00006080020704750207047622070477020E8
:1063E00070474020704748B151B10B7803B14AB1B2
:1063F0000B694BB1CB684BB100207047012070474F
:10640000012070470120704700207047012070472D
:106410002DE9F04768B10F4615460646836E7BB1FD
:10642000426DA2B1D1B1984780464FF00009CA46EB
:106430002FE0264B264A40F25E21264860F000FFFE
:10644000254B234A40F25F21224860F0F9FE234B9E
:106450001F4A4FF418711F4860F0F2FE204B1C4A8F
:1064600040F261211B4860F0EBFE1E4B184A40F2DF
:106470007E21184860F0E4FEB36E98474146FFF76E
:106480009FFF092805D94FF0010902E04FF00109EB
:10649000A2469DB1B9F1000F10D1736D2A4639465D
:1064A000B06D9847041EF1DBE6DDB36E9847804679
:1064B000AC42DAD82D1BA2442744EAE7BAF1000F18
:1064C00001DDC6F870805046BDE8F0875CF5061027
:1064D00064F8061070F50610D8F50610F4F50610ED
:1064E00020F6061030F606102DE9F04F83B0A8B163
